{
  "contractName": "Book",
  "abi": [
    {
      "anonymous": false,
      "inputs": [
        {
          "indexed": false,
          "internalType": "uint256",
          "name": "id",
          "type": "uint256"
        },
        {
          "indexed": false,
          "internalType": "address",
          "name": "addr",
          "type": "address"
        }
      ],
      "name": "borrowSuccess",
      "type": "event"
    },
    {
      "anonymous": false,
      "inputs": [
        {
          "indexed": false,
          "internalType": "uint256",
          "name": "id",
          "type": "uint256"
        },
        {
          "indexed": false,
          "internalType": "address",
          "name": "addr",
          "type": "address"
        },
        {
          "indexed": false,
          "internalType": "uint256",
          "name": "score",
          "type": "uint256"
        }
      ],
      "name": "evaluateSuccess",
      "type": "event"
    },
    {
      "anonymous": false,
      "inputs": [
        {
          "indexed": false,
          "internalType": "uint256",
          "name": "id",
          "type": "uint256"
        },
        {
          "indexed": false,
          "internalType": "string",
          "name": "nameWriter",
          "type": "string"
        },
        {
          "indexed": false,
          "internalType": "string",
          "name": "style",
          "type": "string"
        },
        {
          "indexed": false,
          "internalType": "string",
          "name": "publisherPublishAge",
          "type": "string"
        },
        {
          "indexed": false,
          "internalType": "string",
          "name": "ISBN",
          "type": "string"
        },
        {
          "indexed": false,
          "internalType": "string",
          "name": "intro",
          "type": "string"
        },
        {
          "indexed": false,
          "internalType": "string",
          "name": "cover",
          "type": "string"
        },
        {
          "indexed": false,
          "internalType": "uint256",
          "name": "pages",
          "type": "uint256"
        },
        {
          "indexed": false,
          "internalType": "string",
          "name": "status",
          "type": "string"
        },
        {
          "indexed": false,
          "internalType": "uint256",
          "name": "publishDate",
          "type": "uint256"
        }
      ],
      "name": "publishBookSuccess",
      "type": "event"
    },
    {
      "anonymous": false,
      "inputs": [
        {
          "indexed": false,
          "internalType": "uint256",
          "name": "id",
          "type": "uint256"
        },
        {
          "indexed": false,
          "internalType": "address",
          "name": "addr",
          "type": "address"
        }
      ],
      "name": "returnBookSuccess",
      "type": "event"
    },
    {
      "payable": false,
      "stateMutability": "nonpayable",
      "type": "fallback"
    },
    {
      "constant": true,
      "inputs": [],
      "name": "getBorrowedBooks",
      "outputs": [
        {
          "internalType": "uint256[]",
          "name": "",
          "type": "uint256[]"
        }
      ],
      "payable": false,
      "stateMutability": "view",
      "type": "function"
    },
    {
      "constant": true,
      "inputs": [],
      "name": "getCommentedBook",
      "outputs": [
        {
          "internalType": "uint256[]",
          "name": "",
          "type": "uint256[]"
        }
      ],
      "payable": false,
      "stateMutability": "view",
      "type": "function"
    },
    {
      "constant": true,
      "inputs": [],
      "name": "getPublishedBooks",
      "outputs": [
        {
          "internalType": "uint256[]",
          "name": "",
          "type": "uint256[]"
        }
      ],
      "payable": false,
      "stateMutability": "view",
      "type": "function"
    },
    {
      "constant": true,
      "inputs": [],
      "name": "getReturnedBooks",
      "outputs": [
        {
          "internalType": "uint256[]",
          "name": "",
          "type": "uint256[]"
        }
      ],
      "payable": false,
      "stateMutability": "view",
      "type": "function"
    },
    {
      "constant": true,
      "inputs": [],
      "name": "getBooksLength",
      "outputs": [
        {
          "internalType": "uint256",
          "name": "",
          "type": "uint256"
        }
      ],
      "payable": false,
      "stateMutability": "view",
      "type": "function"
    },
    {
      "constant": true,
      "inputs": [
        {
          "internalType": "uint256",
          "name": "id",
          "type": "uint256"
        }
      ],
      "name": "getCommentLength",
      "outputs": [
        {
          "internalType": "uint256",
          "name": "",
          "type": "uint256"
        }
      ],
      "payable": false,
      "stateMutability": "view",
      "type": "function"
    },
    {
      "constant": true,
      "inputs": [
        {
          "internalType": "uint256",
          "name": "id",
          "type": "uint256"
        }
      ],
      "name": "getBorrowNums",
      "outputs": [
        {
          "internalType": "uint256",
          "name": "",
          "type": "uint256"
        }
      ],
      "payable": false,
      "stateMutability": "view",
      "type": "function"
    },
    {
      "constant": true,
      "inputs": [
        {
          "internalType": "uint256",
          "name": "id",
          "type": "uint256"
        }
      ],
      "name": "getBookInfo",
      "outputs": [
        {
          "internalType": "address",
          "name": "",
          "type": "address"
        },
        {
          "internalType": "string",
          "name": "",
          "type": "string"
        },
        {
          "internalType": "string",
          "name": "",
          "type": "string"
        },
        {
          "internalType": "string",
          "name": "",
          "type": "string"
        },
        {
          "internalType": "string",
          "name": "",
          "type": "string"
        },
        {
          "internalType": "string",
          "name": "",
          "type": "string"
        },
        {
          "internalType": "string",
          "name": "",
          "type": "string"
        },
        {
          "internalType": "string",
          "name": "",
          "type": "string"
        },
        {
          "internalType": "uint256",
          "name": "",
          "type": "uint256"
        },
        {
          "internalType": "uint256",
          "name": "",
          "type": "uint256"
        },
        {
          "internalType": "uint256",
          "name": "",
          "type": "uint256"
        },
        {
          "internalType": "uint256",
          "name": "",
          "type": "uint256"
        }
      ],
      "payable": false,
      "stateMutability": "view",
      "type": "function"
    },
    {
      "constant": true,
      "inputs": [
        {
          "internalType": "uint256",
          "name": "bookId",
          "type": "uint256"
        },
        {
          "internalType": "uint256",
          "name": "commentId",
          "type": "uint256"
        }
      ],
      "name": "getCommentInfo",
      "outputs": [
        {
          "internalType": "address",
          "name": "",
          "type": "address"
        },
        {
          "internalType": "uint256",
          "name": "",
          "type": "uint256"
        },
        {
          "internalType": "uint256",
          "name": "",
          "type": "uint256"
        },
        {
          "internalType": "string",
          "name": "",
          "type": "string"
        }
      ],
      "payable": false,
      "stateMutability": "view",
      "type": "function"
    },
    {
      "constant": true,
      "inputs": [
        {
          "internalType": "uint256",
          "name": "id",
          "type": "uint256"
        }
      ],
      "name": "isEvaluated",
      "outputs": [
        {
          "internalType": "bool",
          "name": "",
          "type": "bool"
        }
      ],
      "payable": false,
      "stateMutability": "view",
      "type": "function"
    },
    {
      "constant": true,
      "inputs": [
        {
          "internalType": "uint256",
          "name": "id",
          "type": "uint256"
        }
      ],
      "name": "isBorrowed",
      "outputs": [
        {
          "internalType": "bool",
          "name": "",
          "type": "bool"
        }
      ],
      "payable": false,
      "stateMutability": "view",
      "type": "function"
    },
    {
      "constant": true,
      "inputs": [
        {
          "internalType": "uint256",
          "name": "id",
          "type": "uint256"
        }
      ],
      "name": "isMyBook",
      "outputs": [
        {
          "internalType": "bool",
          "name": "",
          "type": "bool"
        }
      ],
      "payable": false,
      "stateMutability": "view",
      "type": "function"
    },
    {
      "constant": false,
      "inputs": [
        {
          "internalType": "uint256",
          "name": "id",
          "type": "uint256"
        }
      ],
      "name": "isBookLeft",
      "outputs": [
        {
          "internalType": "bool",
          "name": "",
          "type": "bool"
        }
      ],
      "payable": true,
      "stateMutability": "payable",
      "type": "function"
    },
    {
      "constant": false,
      "inputs": [
        {
          "internalType": "string",
          "name": "nameWriter",
          "type": "string"
        },
        {
          "internalType": "string",
          "name": "style",
          "type": "string"
        },
        {
          "internalType": "string",
          "name": "publisherPublishAge",
          "type": "string"
        },
        {
          "internalType": "string",
          "name": "ISBN",
          "type": "string"
        },
        {
          "internalType": "string",
          "name": "intro",
          "type": "string"
        },
        {
          "internalType": "string",
          "name": "cover",
          "type": "string"
        },
        {
          "internalType": "string",
          "name": "status",
          "type": "string"
        },
        {
          "internalType": "uint256",
          "name": "pages",
          "type": "uint256"
        }
      ],
      "name": "publishBookInfo",
      "outputs": [],
      "payable": false,
      "stateMutability": "nonpayable",
      "type": "function"
    },
    {
      "constant": false,
      "inputs": [
        {
          "internalType": "uint256",
          "name": "id",
          "type": "uint256"
        },
        {
          "internalType": "uint256",
          "name": "score",
          "type": "uint256"
        },
        {
          "internalType": "string",
          "name": "content",
          "type": "string"
        }
      ],
      "name": "evaluate",
      "outputs": [],
      "payable": false,
      "stateMutability": "nonpayable",
      "type": "function"
    },
    {
      "constant": false,
      "inputs": [
        {
          "internalType": "uint256",
          "name": "id",
          "type": "uint256"
        }
      ],
      "name": "returnBook",
      "outputs": [],
      "payable": false,
      "stateMutability": "nonpayable",
      "type": "function"
    },
    {
      "constant": false,
      "inputs": [
        {
          "internalType": "uint256",
          "name": "id",
          "type": "uint256"
        }
      ],
      "name": "borrowedBook",
      "outputs": [],
      "payable": false,
      "stateMutability": "nonpayable",
      "type": "function"
    }
  ],
  "bytecode": "0x60806040526001805534801561001457600080fd5b50612385806100246000396000f3fe6080604052600436106100fe5760003560e01c80637157eb6611610095578063b2adb3db11610064578063b2adb3db1461039c578063b80af8ff146103c7578063ca5140c9146103f0578063cf21e5fc14610419578063d3a82ebf14610444576100fe565b80637157eb66146102cb5780637d7830ae146102f45780638ccca18a146103315780639fae30101461035c576100fe565b80634754d79b116100d15780634754d79b146101cc578063550ca61d1461020957806357a26847146102465780636ef424f41461028e576100fe565b806317a4cb99146101105780631f5a5cd51461013b57806324ca961714610178578063341dca15146101a1575b34801561010a57600080fd5b50600080fd5b34801561011c57600080fd5b50610125610474565b6040516101329190612011565b60405180910390f35b34801561014757600080fd5b50610162600480360361015d9190810190611c93565b61050c565b60405161016f919061204e565b60405180910390f35b34801561018457600080fd5b5061019f600480360361019a9190810190611c93565b610533565b005b3480156101ad57600080fd5b506101b6610709565b6040516101c39190612011565b60405180910390f35b3480156101d857600080fd5b506101f360048036036101ee9190810190611c93565b6107a1565b6040516102009190612033565b60405180910390f35b34801561021557600080fd5b50610230600480360361022b9190810190611c93565b61082e565b60405161023d9190612033565b60405180910390f35b34801561025257600080fd5b5061026d60048036036102689190810190611c93565b6108f0565b6040516102859c9b9a99989796959493929190611eda565b60405180910390f35b34801561029a57600080fd5b506102b560048036036102b09190810190611c93565b610df3565b6040516102c2919061204e565b60405180910390f35b3480156102d757600080fd5b506102f260048036036102ed9190810190611cf8565b610e3a565b005b34801561030057600080fd5b5061031b60048036036103169190810190611c93565b611020565b6040516103289190612033565b60405180910390f35b34801561033d57600080fd5b506103466110be565b6040516103539190612011565b60405180910390f35b34801561036857600080fd5b50610383600480360361037e9190810190611cbc565b611156565b6040516103939493929190611fc5565b60405180910390f35b3480156103a857600080fd5b506103b16112ab565b6040516103be919061204e565b60405180910390f35b3480156103d357600080fd5b506103ee60048036036103e99190810190611b39565b6112b7565b005b3480156103fc57600080fd5b5061041760048036036104129190810190611c93565b61158a565b005b34801561042557600080fd5b5061042e61171e565b60405161043b9190612011565b60405180910390f35b61045e60048036036104599190810190611c93565b6117b6565b60405161046b9190612033565b60405180910390f35b6060600260003373ffffffffffffffffffffffffffffffffffffffff1673ffffffffffffffffffffffffffffffffffffffff16815260200190815260200160002060020180548060200260200160405190810160405280929190818152602001828054801561050257602002820191906000526020600020905b8154815260200190600101908083116104ee575b5050505050905090565b600080828154811061051a57fe5b90600052602060002090600e0201600b01549050919050565b600080549050811061054457600080fd5b600080828154811061055257fe5b90600052602060002090600e020190503373ffffffffffffffffffffffffffffffffffffffff168160000160009054906101000a900473ffffffffffffffffffffffffffffffffffffffff1673ffffffffffffffffffffffffffffffffffffffff16141580156105c857506105c682611020565b155b6105d157600080fd5b6040518060200160405280600160008154809291906001019190505581525081600d01600080815260200190815260200160002060008201518160000155905050600260003373ffffffffffffffffffffffffffffffffffffffff1673ffffffffffffffffffffffffffffffffffffffff1681526020019081526020016000206001018290806001815401808255809150509060018203906000526020600020016000909192909190915055506040518060400160405280600681526020017fe7a6bbe9a68600000000000000000000000000000000000000000000000000008152508160070190805190602001906106cb929190611934565b507f1184577b64fcae7df18378b111b57aeb694fb4b805b0931a28d733e37d06805d82336040516106fd929190612069565b60405180910390a15050565b6060600260003373ffffffffffffffffffffffffffffffffffffffff1673ffffffffffffffffffffffffffffffffffffffff16815260200190815260200160002060030180548060200260200160405190810160405280929190818152602001828054801561079757602002820191906000526020600020905b815481526020019060010190808311610783575b5050505050905090565b600080600083815481106107b157fe5b90600052602060002090600e020190503373ffffffffffffffffffffffffffffffffffffffff168160000160009054906101000a900473ffffffffffffffffffffffffffffffffffffffff1673ffffffffffffffffffffffffffffffffffffffff161415610823576001915050610829565b60009150505b919050565b6000806000838154811061083e57fe5b90600052602060002090600e0201905060008090505b81600b01548110156108e4573373ffffffffffffffffffffffffffffffffffffffff1682600c01600083815260200190815260200160002060000160009054906101000a900473ffffffffffffffffffffffffffffffffffffffff1673ffffffffffffffffffffffffffffffffffffffff1614156108d7576001925050506108eb565b8080600101915050610854565b5060009150505b919050565b600060608060608060608060606000806000806000805490508d1061091457600080fd5b6000808e8154811061092257fe5b90600052602060002090600e020190508060000160009054906101000a900473ffffffffffffffffffffffffffffffffffffffff1681600101826002018360030184600401856005018660060187600701886008015489600901548a600a01548b600b01548a8054600181600116156101000203166002900480601f016020809104026020016040519081016040528092919081815260200182805460018160011615610100020316600290048015610a1c5780601f106109f157610100808354040283529160200191610a1c565b820191906000526020600020905b8154815290600101906020018083116109ff57829003601f168201915b50505050509a50898054600181600116156101000203166002900480601f016020809104026020016040519081016040528092919081815260200182805460018160011615610100020316600290048015610ab85780601f10610a8d57610100808354040283529160200191610ab8565b820191906000526020600020905b815481529060010190602001808311610a9b57829003601f168201915b50505050509950888054600181600116156101000203166002900480601f016020809104026020016040519081016040528092919081815260200182805460018160011615610100020316600290048015610b545780601f10610b2957610100808354040283529160200191610b54565b820191906000526020600020905b815481529060010190602001808311610b3757829003601f168201915b50505050509850878054600181600116156101000203166002900480601f016020809104026020016040519081016040528092919081815260200182805460018160011615610100020316600290048015610bf05780601f10610bc557610100808354040283529160200191610bf0565b820191906000526020600020905b815481529060010190602001808311610bd357829003601f168201915b50505050509750868054600181600116156101000203166002900480601f016020809104026020016040519081016040528092919081815260200182805460018160011615610100020316600290048015610c8c5780601f10610c6157610100808354040283529160200191610c8c565b820191906000526020600020905b815481529060010190602001808311610c6f57829003601f168201915b50505050509650858054600181600116156101000203166002900480601f016020809104026020016040519081016040528092919081815260200182805460018160011615610100020316600290048015610d285780601f10610cfd57610100808354040283529160200191610d28565b820191906000526020600020905b815481529060010190602001808311610d0b57829003601f168201915b50505050509550848054600181600116156101000203166002900480601f016020809104026020016040519081016040528092919081815260200182805460018160011615610100020316600290048015610dc45780601f10610d9957610100808354040283529160200191610dc4565b820191906000526020600020905b815481529060010190602001808311610da757829003601f168201915b505050505094509c509c509c509c509c509c509c509c509c509c509c509c505091939597999b5091939597999b565b60008060008381548110610e0357fe5b90600052602060002090600e02019050600081600d0160008081526020019081526020016000209050806000015492505050919050565b6000805490508310610e4b57600080fd5b6000808481548110610e5957fe5b90600052602060002090600e0201905082600011158015610e7b5750600a8311155b610e8457600080fd5b8281600a016000828254019250508190555060405180608001604052803373ffffffffffffffffffffffffffffffffffffffff1681526020014281526020018481526020018381525081600c01600083600b01600081548092919060010191905055815260200190815260200160002060008201518160000160006101000a81548173ffffffffffffffffffffffffffffffffffffffff021916908373ffffffffffffffffffffffffffffffffffffffff16021790555060208201518160010155604082015181600201556060820151816003019080519060200190610f6b9291906119b4565b50905050600260003373ffffffffffffffffffffffffffffffffffffffff1673ffffffffffffffffffffffffffffffffffffffff1681526020019081526020016000206003018490806001815401808255809150509060018203906000526020600020016000909192909190915055507f0188d9c8488eedcb649a5a94479208fdd077082f814ffe3df1b1b5c7c1216311843383600a015460405161101293929190612092565b60405180910390a150505050565b600080600260003373ffffffffffffffffffffffffffffffffffffffff1673ffffffffffffffffffffffffffffffffffffffff168152602001908152602001600020905060008090505b81600101805490508110156110b2578382600101828154811061108957fe5b906000526020600020015414156110a5576001925050506110b9565b808060010191505061106a565b5060009150505b919050565b6060600260003373ffffffffffffffffffffffffffffffffffffffff1673ffffffffffffffffffffffffffffffffffffffff16815260200190815260200160002060010180548060200260200160405190810160405280929190818152602001828054801561114c57602002820191906000526020600020905b815481526020019060010190808311611138575b5050505050905090565b60008060006060600080549050861061116e57600080fd5b6000868154811061117b57fe5b90600052602060002090600e0201600b0154851061119857600080fd5b60008087815481106111a657fe5b90600052602060002090600e0201600c01600087815260200190815260200160002090508060000160009054906101000a900473ffffffffffffffffffffffffffffffffffffffff168160010154826002015483600301808054600181600116156101000203166002900480601f0160208091040260200160405190810160405280929190818152602001828054600181600116156101000203166002900480156112925780601f1061126757610100808354040283529160200191611292565b820191906000526020600020905b81548152906001019060200180831161127557829003601f168201915b5050505050905094509450945094505092959194509250565b60008080549050905090565b6000808054905090506112c8611a34565b6040518061018001604052803373ffffffffffffffffffffffffffffffffffffffff1681526020018b81526020018a815260200189815260200188815260200187815260200186815260200185815260200184815260200142815260200160008152602001600081525090506000819080600181540180825580915050906001820390600052602060002090600e02016000909192909190915060008201518160000160006101000a81548173ffffffffffffffffffffffffffffffffffffffff021916908373ffffffffffffffffffffffffffffffffffffffff16021790555060208201518160010190805190602001906113c59291906119b4565b5060408201518160020190805190602001906113e29291906119b4565b5060608201518160030190805190602001906113ff9291906119b4565b50608082015181600401908051906020019061141c9291906119b4565b5060a08201518160050190805190602001906114399291906119b4565b5060c08201518160060190805190602001906114569291906119b4565b5060e08201518160070190805190602001906114739291906119b4565b506101008201518160080155610120820151816009015561014082015181600a015561016082015181600b0155505050600260003373ffffffffffffffffffffffffffffffffffffffff1673ffffffffffffffffffffffffffffffffffffffff1681526020019081526020016000206000018290806001815401808255809150509060018203906000526020600020016000909192909190915055507f16087a9e767de6623e529756b4320e70a69d03793c9223aa357d00d4838db3088282602001518360400151846060015185608001518660a001518760c001518861010001518960e001518a61012001516040516115769a999897969594939291906120c9565b60405180910390a150505050505050505050565b600080549050811061159b57600080fd5b60008082815481106115a957fe5b90600052602060002090600e020190503373ffffffffffffffffffffffffffffffffffffffff168160000160009054906101000a900473ffffffffffffffffffffffffffffffffffffffff1673ffffffffffffffffffffffffffffffffffffffff161415801561161e575061161d82611020565b5b61162757600080fd5b6040518060400160405280600681526020017fe59ca8e69eb60000000000000000000000000000000000000000000000000000815250816007019080519060200190611674929190611934565b50600260003373ffffffffffffffffffffffffffffffffffffffff1673ffffffffffffffffffffffffffffffffffffffff1681526020019081526020016000206002018290806001815401808255809150509060018203906000526020600020016000909192909190915055507f30de101b2cf7aac7e760886e5d4063d4496af6839165b08096993de98558d1ba8233604051611712929190612069565b60405180910390a15050565b6060600260003373ffffffffffffffffffffffffffffffffffffffff1673ffffffffffffffffffffffffffffffffffffffff1681526020019081526020016000206000018054806020026020016040519081016040528092919081815260200182805480156117ac57602002820191906000526020600020905b815481526020019060010190808311611798575b5050505050905090565b6000808054905082106117c857600080fd5b60008083815481106117d657fe5b90600052602060002090600e020190506118c1816007018054600181600116156101000203166002900480601f0160208091040260200160405190810160405280929190818152602001828054600181600116156101000203166002900480156118815780601f1061185657610100808354040283529160200191611881565b820191906000526020600020905b81548152906001019060200180831161186457829003601f168201915b50505050506040518060400160405280600681526020017fe7a6bbe9a68600000000000000000000000000000000000000000000000000008152506118db565b156118d05760019150506118d6565b60009150505b919050565b6000816040516020016118ee9190611ec3565b60405160208183030381529060405280519060200120836040516020016119159190611ec3565b6040516020818303038152906040528051906020012014905092915050565b828054600181600116156101000203166002900490600052602060002090601f016020900481019282601f1061197557805160ff19168380011785556119a3565b828001600101855582156119a3579182015b828111156119a2578251825591602001919060010190611987565b5b5090506119b09190611aab565b5090565b828054600181600116156101000203166002900490600052602060002090601f016020900481019282601f106119f557805160ff1916838001178555611a23565b82800160010185558215611a23579182015b82811115611a22578251825591602001919060010190611a07565b5b509050611a309190611aab565b5090565b604051806101800160405280600073ffffffffffffffffffffffffffffffffffffffff16815260200160608152602001606081526020016060815260200160608152602001606081526020016060815260200160608152602001600081526020016000815260200160008152602001600081525090565b611acd91905b80821115611ac9576000816000905550600101611ab1565b5090565b90565b600082601f830112611ae157600080fd5b8135611af4611aef826121c3565b612196565b91508082526020830160208301858383011115611b1057600080fd5b611b1b8382846122d8565b50505092915050565b600081359050611b338161232b565b92915050565b600080600080600080600080610100898b031215611b5657600080fd5b600089013567ffffffffffffffff811115611b7057600080fd5b611b7c8b828c01611ad0565b985050602089013567ffffffffffffffff811115611b9957600080fd5b611ba58b828c01611ad0565b975050604089013567ffffffffffffffff811115611bc257600080fd5b611bce8b828c01611ad0565b965050606089013567ffffffffffffffff811115611beb57600080fd5b611bf78b828c01611ad0565b955050608089013567ffffffffffffffff811115611c1457600080fd5b611c208b828c01611ad0565b94505060a089013567ffffffffffffffff811115611c3d57600080fd5b611c498b828c01611ad0565b93505060c089013567ffffffffffffffff811115611c6657600080fd5b611c728b828c01611ad0565b92505060e0611c838b828c01611b24565b9150509295985092959890939650565b600060208284031215611ca557600080fd5b6000611cb384828501611b24565b91505092915050565b60008060408385031215611ccf57600080fd5b6000611cdd85828601611b24565b9250506020611cee85828601611b24565b9150509250929050565b600080600060608486031215611d0d57600080fd5b6000611d1b86828701611b24565b9350506020611d2c86828701611b24565b925050604084013567ffffffffffffffff811115611d4957600080fd5b611d5586828701611ad0565b9150509250925092565b6000611d6b8383611ea5565b60208301905092915050565b611d80816122a2565b82525050565b611d8f8161225a565b82525050565b6000611da0826121ff565b611daa818561222d565b9350611db5836121ef565b8060005b83811015611de6578151611dcd8882611d5f565b9750611dd883612220565b925050600181019050611db9565b5085935050505092915050565b611dfc8161226c565b82525050565b6000611e0d82612215565b611e17818561223e565b9350611e278185602086016122e7565b611e308161231a565b840191505092915050565b6000611e4682612215565b611e50818561224f565b9350611e608185602086016122e7565b80840191505092915050565b6000611e778261220a565b611e81818561223e565b9350611e918185602086016122e7565b611e9a8161231a565b840191505092915050565b611eae81612298565b82525050565b611ebd81612298565b82525050565b6000611ecf8284611e3b565b915081905092915050565b600061018082019050611ef0600083018f611d86565b8181036020830152611f02818e611e02565b90508181036040830152611f16818d611e02565b90508181036060830152611f2a818c611e02565b90508181036080830152611f3e818b611e02565b905081810360a0830152611f52818a611e02565b905081810360c0830152611f668189611e02565b905081810360e0830152611f7a8188611e02565b9050611f8a610100830187611eb4565b611f98610120830186611eb4565b611fa6610140830185611eb4565b611fb4610160830184611eb4565b9d9c50505050505050505050505050565b6000608082019050611fda6000830187611d86565b611fe76020830186611eb4565b611ff46040830185611eb4565b81810360608301526120068184611e02565b905095945050505050565b6000602082019050818103600083015261202b8184611d95565b905092915050565b60006020820190506120486000830184611df3565b92915050565b60006020820190506120636000830184611eb4565b92915050565b600060408201905061207e6000830185611eb4565b61208b6020830184611d77565b9392505050565b60006060820190506120a76000830186611eb4565b6120b46020830185611d77565b6120c16040830184611eb4565b949350505050565b6000610140820190506120df600083018d611eb4565b81810360208301526120f1818c611e6c565b90508181036040830152612105818b611e6c565b90508181036060830152612119818a611e6c565b9050818103608083015261212d8189611e6c565b905081810360a08301526121418188611e6c565b905081810360c08301526121558187611e6c565b905061216460e0830186611eb4565b8181036101008301526121778185611e6c565b9050612187610120830184611eb4565b9b9a5050505050505050505050565b6000604051905081810181811067ffffffffffffffff821117156121b957600080fd5b8060405250919050565b600067ffffffffffffffff8211156121da57600080fd5b601f19601f8301169050602081019050919050565b6000819050602082019050919050565b600081519050919050565b600081519050919050565b600081519050919050565b6000602082019050919050565b600082825260208201905092915050565b600082825260208201905092915050565b600081905092915050565b600061226582612278565b9050919050565b60008115159050919050565b600073ffffffffffffffffffffffffffffffffffffffff82169050919050565b6000819050919050565b60006122ad826122b4565b9050919050565b60006122bf826122c6565b9050919050565b60006122d182612278565b9050919050565b82818337600083830152505050565b60005b838110156123055780820151818401526020810190506122ea565b83811115612314576000848401525b50505050565b6000601f19601f8301169050919050565b61233481612298565b811461233f57600080fd5b5056fea365627a7a72315820c0ef5f2a6855826513cbe7925a53210656f57b16edf1f9c4516a01e7c681e40c6c6578706572696d656e74616cf564736f6c63430005100040",
  "source": "pragma solidity >=0.4.22 <0.6.0;\npragma experimental ABIEncoderV2;\n\ncontract Book{\n    struct OptBook{\n        uint[] publishedBooks;//\n        uint[] borrowedBooks;//\n        uint[] returnedBooks;//\n        uint[] commentedBooks;//\n    }\n\n    struct Book{\n        address owner;//\n        string nameWriter;//&\n        string style;//\n        string publisherPublishAge;//&\n        string ISBN;//\n        string intro;//\n        string cover;//\n\n        string status;//(01)\n        uint pages;//\n        uint publishDate;//\n        uint score;//\n        uint comment;//\n        mapping(uint => Comment) comments;//\n        mapping(uint => BorrowNums) borrowNums;\n    }\n\n    struct Comment {\n        address reader; // \n        uint date;      // \n        uint score;     // \n        string content; // \n    }\n\n    struct BorrowNums{\n        uint borrowNum;//\n    }\n\n    Book[] books;\n    uint tempNum = 1;\n    mapping(address => OptBook) BooksPool;\n    //\n    event publishBookSuccess(uint id, string nameWriter, string style, string publisherPublishAge,\n        string ISBN,string intro, string cover, uint pages, string status,\n        uint publishDate);\n    //\n    event evaluateSuccess(uint id,address addr,uint score);\n    //\n    event borrowSuccess(uint id, address addr);\n    //\n    event returnBookSuccess(uint id, address addr);\n\n    //\n    function getBorrowedBooks() public view returns (uint[] memory){\n        return BooksPool[msg.sender].borrowedBooks;\n    }\n    //\n    function getCommentedBook() public view returns(uint[] memory){\n        return BooksPool[msg.sender].commentedBooks;\n    }\n    //\n    function getPublishedBooks() public view returns(uint[] memory){\n        return BooksPool[msg.sender].publishedBooks;\n    }\n    //\n    function getReturnedBooks() public view returns(uint[] memory){\n        return BooksPool[msg.sender].returnedBooks;\n    }\n\n    //\n    function getBooksLength() public view returns(uint){\n        return books.length;\n    }\n\n    //\n    function getCommentLength(uint id) public view returns (uint) {\n        return books[id].comment;\n    }\n\n    //\n    function getBorrowNums(uint id) public view returns(uint){\n        Book storage book = books[id];\n        BorrowNums storage b = book.borrowNums[0];\n        return b.borrowNum;\n    }\n\n    //\n    function getBookInfo(uint id) public view returns(address, string memory, string memory, string memory,string memory,string memory,string memory,\n        string memory, uint, uint, uint, uint){\n        require(id < books.length);\n        //,\n        Book storage book = books[id];\n        return (book.owner,book.nameWriter,book.style,book.publisherPublishAge,book.ISBN,book.intro,book.cover,book.status,\n        book.pages,book.publishDate,book.score,book.comment);\n    }\n\n    //\n    function getCommentInfo(uint bookId,uint commentId) public view returns(\n        address, uint, uint, string memory){\n        require(bookId < books.length);\n        require(commentId < books[bookId].comment);\n        Comment storage c = books[bookId].comments[commentId];\n        return (c.reader, c.date, c.score, c.content);\n    }\n\n    //  \n    function isEvaluated(uint id) public view returns (bool) {\n        Book storage book = books[id];\n        for(uint i = 0; i < book.comment; i++)\n            if(book.comments[i].reader == msg.sender)\n                return true; // \n        return false; // \n    }\n\n    //  \n    function isBorrowed(uint id) public view returns (bool) {\n        OptBook storage optBook = BooksPool[msg.sender];\n        for(uint i = 0; i < optBook.borrowedBooks.length; i++)\n            if(optBook.borrowedBooks[i] == id)\n                return true; // \n        return false; // \n    }\n\n    function isMyBook(uint id) public view returns(bool){\n        Book storage book = books[id];\n        if(book.owner == msg.sender)\n            return (true);\n        return (false);\n    }\n\n    //\n    function isBookLeft(uint id) public payable returns(bool){\n        require(id < books.length);\n        Book storage book = books[id];\n        if(hashCompareInternal(book.status,\"\"))\n            return true;//\n        return false;//\n    }\n\n    //\n    function publishBookInfo(string memory nameWriter, string memory style, string memory publisherPublishAge,string memory ISBN,string memory intro,\n        string memory cover,string memory status ,uint pages) public {\n        uint id = books.length;\n        Book memory book = Book(msg.sender,nameWriter,style,publisherPublishAge,ISBN,intro,cover,status,pages,now,0,0);\n        books.push(book);\n        BooksPool[msg.sender].publishedBooks.push(id);\n        emit publishBookSuccess(id,book.nameWriter,book.style,book.publisherPublishAge,book.ISBN,book.intro,book.cover,\n            book.pages,book.status,book.publishDate);\n    }\n\n    //\n    function evaluate(uint id, uint score, string memory content) public{\n        require(id < books.length);\n        // \n        Book storage book = books[id];\n        //require(book.owner != msg.sender && !isEvaluated(id)); // \n        require(0 <= score && score <= 10); // \n        // \n        book.score += score;\n        book.comments[book.comment++] = Comment(msg.sender, now, score, content);\n        BooksPool[msg.sender].commentedBooks.push(id);\n        emit evaluateSuccess(id, msg.sender, book.score);\n    }\n\n    //\n    function returnBook(uint id) public{\n        require(id < books.length);\n        Book storage book = books[id];\n        require(book.owner != msg.sender && isBorrowed(id)); // \n        book.status = \"\";\n        BooksPool[msg.sender].returnedBooks.push(id);\n        emit returnBookSuccess(id, msg.sender);\n    }\n\n    //\n    function borrowedBook(uint id) public{\n        require(id < books.length);\n        Book storage book = books[id];\n        require(book.owner != msg.sender && !isBorrowed(id)); // \n        book.borrowNums[0] = BorrowNums(tempNum++);\n        BooksPool[msg.sender].borrowedBooks.push(id);\n        book.status=\"\";\n        emit borrowSuccess(id, msg.sender);\n\n    }\n\n    //\n    function hashCompareInternal(string memory a, string memory b) internal returns (bool) {\n        return keccak256(abi.encodePacked(a)) == keccak256(abi.encodePacked(b));\n    }\n\n    function () external {\n        revert();\n    }\n}",
  "sourcePath": "/Users/chengyq/ethereum_library_dapp/contracts/Book.sol",
  "compiler": {
    "name": "solc",
    "version": "0.5.16+commit.9c3226ce.Emscripten.clang"
  },
  "schemaVersion": "3.4.14",
  "updatedAt": "2023-08-07T01:40:09.508Z",
  "networkType": "ethereum",
  "devdoc": {
    "methods": {}
  },
  "userdoc": {
    "methods": {}
  }
}